{
  "contractName": "DeviceHelper",
  "abi": [
    {
      "constant": true,
      "inputs": [
        {
          "name": "",
          "type": "uint256"
        }
      ],
      "name": "devices",
      "outputs": [
        {
          "name": "owner",
          "type": "address"
        },
        {
          "name": "identifier",
          "type": "string"
        },
        {
          "name": "minToggleMode",
          "type": "int256"
        },
        {
          "name": "maxToggleMode",
          "type": "int256"
        },
        {
          "name": "currentFunction",
          "type": "int256"
        }
      ],
      "payable": false,
      "stateMutability": "view",
      "type": "function"
    },
    {
      "constant": true,
      "inputs": [
        {
          "name": "",
          "type": "address"
        }
      ],
      "name": "ownerDeviceCount",
      "outputs": [
        {
          "name": "",
          "type": "uint256"
        }
      ],
      "payable": false,
      "stateMutability": "view",
      "type": "function"
    },
    {
      "constant": false,
      "inputs": [
        {
          "name": "_identifier",
          "type": "string"
        },
        {
          "name": "_minToggleMode",
          "type": "int256"
        },
        {
          "name": "_maxToggleMode",
          "type": "int256"
        }
      ],
      "name": "createDevice",
      "outputs": [
        {
          "name": "",
          "type": "uint256"
        }
      ],
      "payable": false,
      "stateMutability": "nonpayable",
      "type": "function"
    },
    {
      "anonymous": false,
      "inputs": [
        {
          "indexed": true,
          "name": "deviceId",
          "type": "uint256"
        },
        {
          "indexed": true,
          "name": "owner",
          "type": "address"
        },
        {
          "indexed": false,
          "name": "identifier",
          "type": "string"
        },
        {
          "indexed": false,
          "name": "minToggleMode",
          "type": "int256"
        },
        {
          "indexed": false,
          "name": "maxToggleMode",
          "type": "int256"
        },
        {
          "indexed": false,
          "name": "currentFunction",
          "type": "int256"
        }
      ],
      "name": "DeviceCreated",
      "type": "event"
    },
    {
      "constant": true,
      "inputs": [
        {
          "name": "_owner",
          "type": "address"
        }
      ],
      "name": "getDevicesByOwner",
      "outputs": [
        {
          "name": "",
          "type": "uint256[]"
        }
      ],
      "payable": false,
      "stateMutability": "view",
      "type": "function"
    }
  ],
  "bytecode": "0x608060405234801561001057600080fd5b50610a31806100206000396000f3fe608060405260043610610062576000357c0100000000000000000000000000000000000000000000000000000000900463ffffffff16806310ff8e31146100675780632a08e6011461016357806351b0e987146101c85780636300ef641461026e575b600080fd5b34801561007357600080fd5b506100a06004803603602081101561008a57600080fd5b810190808035906020019092919050505061035e565b604051808673ffffffffffffffffffffffffffffffffffffffff1673ffffffffffffffffffffffffffffffffffffffff16815260200180602001858152602001848152602001838152602001828103825286818151815260200191508051906020019080838360005b83811015610124578082015181840152602081019050610109565b50505050905090810190601f1680156101515780820380516001836020036101000a031916815260200191505b50965050505050505060405180910390f35b34801561016f57600080fd5b506101b26004803603602081101561018657600080fd5b81019080803573ffffffffffffffffffffffffffffffffffffffff16906020019092919050505061045b565b6040518082815260200191505060405180910390f35b3480156101d457600080fd5b50610217600480360360208110156101eb57600080fd5b81019080803573ffffffffffffffffffffffffffffffffffffffff169060200190929190505050610473565b6040518080602001828103825283818151815260200191508051906020019060200280838360005b8381101561025a57808201518184015260208101905061023f565b505050509050019250505060405180910390f35b34801561027a57600080fd5b506103486004803603606081101561029157600080fd5b81019080803590602001906401000000008111156102ae57600080fd5b8201836020820111156102c057600080fd5b803590602001918460018302840111640100000000831117156102e257600080fd5b91908080601f016020809104026020016040519081016040528093929190818152602001838380828437600081840152601f19601f82011690508083019250505050505050919291929080359060200190929190803590602001909291905050506105b1565b6040518082815260200191505060405180910390f35b60008181548110151561036d57fe5b90600052602060002090600502016000915090508060000160009054906101000a900473ffffffffffffffffffffffffffffffffffffffff1690806001018054600181600116156101000203166002900480601f01602080910402602001604051908101604052809291908181526020018280546001816001161561010002031660029004801561043f5780601f106104145761010080835404028352916020019161043f565b820191906000526020600020905b81548152906001019060200180831161042257829003601f168201915b5050505050908060020154908060030154908060040154905085565b60016020528060005260406000206000915090505481565b606080600160008473ffffffffffffffffffffffffffffffffffffffff1673ffffffffffffffffffffffffffffffffffffffff168152602001908152602001600020546040519080825280602002602001820160405280156104e45781602001602082028038833980820191505090505b509050600080905060008090505b6000805490508110156105a6578473ffffffffffffffffffffffffffffffffffffffff1660008281548110151561052557fe5b906000526020600020906005020160000160009054906101000a900473ffffffffffffffffffffffffffffffffffffffff1673ffffffffffffffffffffffffffffffffffffffff1614156105995780838381518110151561058257fe5b906020019060200201818152505081806001019250505b80806001019150506104f2565b508192505050919050565b600060018312151515610652576040517f08c379a000000000000000000000000000000000000000000000000000000000815260040180806020018281038252602a8152602001807f446576696365206d7573742068617665206174206c65617374206f6e6520746f81526020017f67676c65206d6f64652e0000000000000000000000000000000000000000000081525060400191505060405180910390fd5b8282121515156106f0576040517f08c379a000000000000000000000000000000000000000000000000000000000815260040180806020018281038252603c8152602001807f4d6178696d756d20746f67676c65206d6f64652063616e6e6f74206265206c6581526020017f7373207468616e206d696e696d756d20746f67676c65206d6f64652e0000000081525060400191505060405180910390fd5b6106f861091a565b60a0604051908101604052803373ffffffffffffffffffffffffffffffffffffffff16815260200186815260200185815260200184815260200160008152509050600060016000839080600181540180825580915050906001820390600052602060002090600502016000909192909190915060008201518160000160006101000a81548173ffffffffffffffffffffffffffffffffffffffff021916908373ffffffffffffffffffffffffffffffffffffffff16021790555060208201518160010190805190602001906107ce929190610960565b506040820151816002015560608201518160030155608082015181600401555050039050600160003373ffffffffffffffffffffffffffffffffffffffff1673ffffffffffffffffffffffffffffffffffffffff168152602001908152602001600020600081548092919060010191905055503373ffffffffffffffffffffffffffffffffffffffff16817f0c05de676ef09cfd25b89696f82fd35e4847b649c2914a764870fd7c8f88c50788888860006040518080602001858152602001848152602001838152602001828103825286818151815260200191508051906020019080838360005b838110156108d15780820151818401526020810190506108b6565b50505050905090810190601f1680156108fe5780820380516001836020036101000a031916815260200191505b509550505050505060405180910390a380925050509392505050565b60a060405190810160405280600073ffffffffffffffffffffffffffffffffffffffff168152602001606081526020016000815260200160008152602001600081525090565b828054600181600116156101000203166002900490600052602060002090601f016020900481019282601f106109a157805160ff19168380011785556109cf565b828001600101855582156109cf579182015b828111156109ce5782518255916020019190600101906109b3565b5b5090506109dc91906109e0565b5090565b610a0291905b808211156109fe5760008160009055506001016109e6565b5090565b9056fea165627a7a723058207d6a5eaf132f6d97a63b3d7a1bc82ec387bdba25adef6c72c6e337644bc153300029",
  "source": "pragma solidity ^0.5.0;\n\ncontract DeviceBase {\n    struct Device {\n        address owner;\n        string identifier;\n        int256 minToggleMode;\n        int256 maxToggleMode;\n        int256 currentFunction;\n    }\n\n    Device[] public devices;\n\n    mapping(address => uint256) public ownerDeviceCount;\n    event DeviceCreated(\n        uint256 indexed deviceId,\n        address indexed owner,\n        string identifier,\n        int256 minToggleMode,\n        int256 maxToggleMode,\n        int256 currentFunction\n    );\n\n    modifier onlyOwnerOf(uint256 _deviceId) {\n        require(\n            devices[_deviceId].owner == msg.sender,\n            \"Only for device owner\"\n        );\n        _;\n    }\n\n    function createDevice(\n        string memory _identifier,\n        int256 _minToggleMode,\n        int256 _maxToggleMode\n    ) public returns (uint256) {\n        require(\n            _minToggleMode >= 1,\n            \"Device must have at least one toggle mode.\"\n        );\n        require(\n            _maxToggleMode >= _minToggleMode,\n            \"Maximum toggle mode cannot be less than minimum toggle mode.\"\n        );\n        Device memory newDevice = Device(\n            msg.sender,\n            _identifier,\n            _minToggleMode,\n            _maxToggleMode,\n            0\n        );\n        uint256 deviceId = devices.push(newDevice) - 1;\n        ownerDeviceCount[msg.sender]++;\n\n        emit DeviceCreated(\n            deviceId,\n            msg.sender,\n            _identifier,\n            _minToggleMode,\n            _maxToggleMode,\n            0\n        );\n        return deviceId;\n    }\n}\n\ncontract DeviceHelper is DeviceBase {\n    function getDevicesByOwner(address _owner)\n        public\n        view\n        returns (uint256[] memory)\n    {\n        uint256[] memory deviceIds = new uint256[](ownerDeviceCount[_owner]);\n        uint256 counter = 0;\n        for (uint256 i = 0; i < devices.length; i++) {\n            if (devices[i].owner == _owner) {\n                deviceIds[counter] = i;\n                counter++;\n            }\n        }\n        return deviceIds;\n    }\n}\n\ncontract DeviceUpdatable is DeviceHelper {\n    event DeviceTransfered(\n        uint256 indexed deviceId,\n        address oldOwner,\n        address newOwner\n    );\n    event DevicePropertyUpdated(\n        uint256 indexed deviceId,\n        int256 newMinValue,\n        int256 newMaxValue\n    );\n    event DeviceIdentifierUpdated(uint256 indexed deviceId, string newValue);\n    event ToggledDeviceMode(uint256 indexed deviceId, int256 newValue);\n\n    function transferDevice(uint256 _deviceId, address _to)\n        public\n        onlyOwnerOf(_deviceId)\n    {\n        address currentOwner = devices[_deviceId].owner;\n        devices[_deviceId].owner = _to;\n        ownerDeviceCount[msg.sender]--;\n        ownerDeviceCount[_to]++;\n        emit DeviceTransfered(_deviceId, currentOwner, _to);\n    }\n\n    function updateIdentifier(uint256 _deviceId, string memory _newIdentifier)\n        public\n        onlyOwnerOf(_deviceId)\n    {\n        devices[_deviceId].identifier = _newIdentifier;\n        emit DeviceIdentifierUpdated(_deviceId, _newIdentifier);\n    }\n\n    function updateToggleMode(\n        uint256 _deviceId,\n        int256 _minToggleMode,\n        int256 _maxToggleMode\n    ) public onlyOwnerOf(_deviceId) {\n        devices[_deviceId].minToggleMode = _minToggleMode;\n        devices[_deviceId].maxToggleMode = _maxToggleMode;\n        emit DevicePropertyUpdated(_deviceId, _minToggleMode, _maxToggleMode);\n    }\n\n    function toggleDevice(uint256 _deviceId, int256 _currentFunction)\n        public\n        onlyOwnerOf(_deviceId)\n    {\n        require(\n            _currentFunction == 0 ||\n                (_currentFunction >= devices[_deviceId].minToggleMode &&\n                    _currentFunction <= devices[_deviceId].maxToggleMode),\n            \"you can only set device toggle to 0 or any number between your min and max toggle mode.\"\n        );\n        devices[_deviceId].currentFunction = _currentFunction;\n\n        emit ToggledDeviceMode(_deviceId, _currentFunction);\n    }\n\n    function updateDevive(\n        uint256 _deviceId,\n        string memory _identifier,\n        int256 _minToggleMode,\n        int256 _maxToggleMode\n    ) public onlyOwnerOf(_deviceId) {\n        devices[_deviceId].identifier = _identifier;\n        devices[_deviceId].minToggleMode = _minToggleMode;\n        devices[_deviceId].maxToggleMode = _maxToggleMode;\n\n        emit DeviceIdentifierUpdated(_deviceId, _identifier);\n        emit DevicePropertyUpdated(_deviceId, _minToggleMode, _maxToggleMode);\n    }\n}\n\ncontract DeviceManager is DeviceUpdatable {\n    /// @dev Merges contracts.\n}\n",
  "sourcePath": "/var/www/iot/contracts/DeviceManager.sol",
  "compiler": {
    "name": "solc",
    "version": "0.5.0+commit.1d4f565a.Emscripten.clang"
  },
  "schemaVersion": "3.4.10",
  "updatedAt": "2022-12-06T22:46:13.189Z",
  "devdoc": {
    "methods": {}
  },
  "userdoc": {
    "methods": {}
  }
}